:020000040000FA
:10000000A0020010850100008D0100008F0100009A
:1000100000000000000000000000000000000000E0
:10002000000000000000000000000000910100003E
:100030000000000000000000930100009501000096
:100040009701000097010000970100009701000050
:100050009701000097010000970100009701000040
:100060009701000097010000970100009701000030
:100070009701000097010000970100009701000020
:100080009701000097010000970100009701000010
:100090009701000097010000970100009701000000
:1000A0000D1A000097010000970100009701000061
:1000B000151E000097010000970100009701000045
:1000C00000F002F800F04EF80CA030C808382418F0
:1000D0002D18A246671EAB4654465D46AC4201D180
:1000E00000F040F87E460F3E0FCCB6460126334264
:1000F00000D0FB1AA246AB4633431847E02200006B
:1001000000230000103A02D378C878C1FAD8520709
:1001100001D330C830C101D504680C6070470000BD
:100120000023002400250026103A01D378C1FBD813
:10013000520700D330C100D50B60704710B5662957
:1001400002D102F0D9F810BD002010BD1FB500F09B
:10015000C7F804000020002101F0B4FFE0601FBDDB
:1001600010B510BD01F0B0FB1146FFF7EFFF01F035
:1001700071FF01F0C8FB03B4FFF7F2FF03BC01F00D
:100180003FFC00000748804707480047FEE7FEE7BE
:10019000FEE7FEE7FEE7FEE704480549034A054B94
:1001A00070470000611E0000C1000000A0000010A8
:1001B000A0020010A00000100FB41CB5074B06AA47
:1001C0007B4469460090059800F0CFFF0020694607
:1001D00000F080F81CBC08BC04B0184711010000F6
:1001E00070B5044685690068C10601D5302600E077
:1001F0002026C00707D070BD62683046A1689047CE
:10020000206A401C20626D1EF6D570BD70B5044694
:1002100085690078C00707D170BD6268A168202099
:100220009047206A401C20626D1EF6D570BD704755
:10023000704770470346CA02400D10B510430A15B7
:1002400004D00124E4072043002A05DB0A4CA21A4B
:1002500004D4D040FF2A00DD002010BD4A00002B4E
:1002600001D0012000E00020101801225205D042E8
:10027000F2D8C817C04310BD1E0400001F22030C93
:1002800002D10F22000402D0030E03D004E00020AC
:10029000014670470002083A030F01D10001121F06
:1002A000830F01D18000921E002801DB4000521E06
:1002B000120551184205C012411810467047C10F6F
:1002C000C90700D04042012292071143D6E701211D
:1002D0008907D3E70A681070521C0A607047000053
:1002E000004870475C00001010B5024801F058FB50
:1002F00010BD00000000C07F70470000FFFFFFFF3F
:10030000F3B50446002081B020622046E1688847AA
:1003100000287AD0252802D06268A16871E0E168DF
:1003200020460025884706460020E0610746A06178
:100330002A2E0AD0304601F07FFE002827D0B800D0
:100340000019303E0090866119E00298BA00121937
:1003500002C8916102902046E1688847012F064655
:1003600017D1E06900281FDA202085431CE000989F
:100370000A218069484300998019303888612046F5
:10038000E1688847064601F057FE0028EFD1012FAB
:100390000AD02E2E08D12046E16888470646202044
:1003A00005437F1C022FC3DBA069002803DA40420B
:1003B000A06101200543E80701D010208543002EED
:1003C00023D030464138192803D80120C002054304
:1003D0002036204625603146029A1546FFF7AEFECC
:1003E00000280BD0012806D0ED1DE808C000083019
:1003F00002908AE709E02D1D029586E76268304683
:10040000A1689047206A401C7EE7206AFEBD00225A
:1004100003098B422CD3030A8B4211D300239C4641
:100420004EE003460B433CD4002243088B4231D3B9
:1004300003098B421CD3030A8B4201D394463FE04D
:10044000C3098B4201D3CB01C01A524183098B42AD
:1004500001D38B01C01A524143098B4201D34B0196
:10046000C01A524103098B4201D30B01C01A5241F9
:10047000C3088B4201D3CB00C01A524183088B4280
:1004800001D38B00C01A524143088B4201D34B0069
:10049000C01A5241411A00D20146524110467047DB
:1004A0005DE0CA0F00D04942031000D340425340E0
:1004B00000229C4603098B422DD3030A8B4212D3A0
:1004C000FC22890112BA030A8B420CD389019211D2
:1004D0008B4208D3890192118B4204D389013AD00F
:1004E000921100E08909C3098B4201D3CB01C01AE4
:1004F000524183098B4201D38B01C01A52414309F7
:100500008B4201D34B01C01A524103098B4201D3E4
:100510000B01C01A5241C3088B4201D3CB00C01A51
:10052000524183088B4201D38B00C01A5241D9D269
:1005300043088B4201D34B00C01A5241411A00D2EA
:100540000146634652415B10104601D34042002BE6
:1005500000D54942704763465B1000D3404201B565
:100560000020C046C04602BDF0B50C46871A9C412B
:100570000D46861A9D4103D2C01BA141D219634189
:100580000D0D1F0DC94EEC1BAE435CD07F057F0DDA
:100590000026002F51D02D05AC46A943DD020123D2
:1005A000ED0A1B051D4320231B1B24D41746E740DF
:1005B000381871412F46E740CC199D402818314624
:1005C00061410C0D27D161449A4013D50023401C92
:1005D000594152000ED14008400001224B00520503
:1005E000D34207D305204007C14201D5B04900E0FE
:1005F000B0493046F0BD6B00002A00D001229A18A5
:100600001F23203C1B1B01D5002302E0E5402818D6
:1006100071410C0DD7D0012424050919C407CD0759
:1006200040084908E40F28436144002CD5D0002439
:10063000401C61419A40D0D1CDE76A05520DD9D115
:10064000C90FC907D5E79C4D4E00002801D00124F1
:1006500000E0002434195F00002A01D0012600E0E8
:100660000026BE19954FAC420CD8AE420AD8B4420F
:1006700006D001256D05EC42BCD010461946F0BDF0
:100680009942FCD000203946F0BDF0B51FB40C46AD
:100690000F46811A9F412546861A9D4106D20125A3
:1006A000ED076F40401ABC4152187B41210D1E0DD1
:1006B0008D1BAC467D4D8D437ED075056D0D7CD078
:1006C0000D05AE46AC431B031B0B794D52429D41B9
:1006D000202366469B1B14D31746F7403818002684
:1006E0000090744160462F460741E41900989D40F0
:1006F0002818664116D4714671189A4025D50123F1
:1007000020E093182A466A415200002B00D0521C68
:100710001E23203E9B1B002B61DD3541EE17281860
:100720006641E8D5001876415B1C9A4000D3401C16
:100730004B05F3181524E34010D3002B52D071461B
:100740007118D30FC01802D3491C05B0F0BD0123A6
:10075000DB079A42F9D140084000F6E70122520532
:10076000B21801D1002853D00123CC0ADB029943EF
:10077000891E002A08D1020C03D0020C0004103993
:1007800002E00246002020390023550B05D1120259
:100790000823550B01D152010D23550C01D1120133
:1007A0001B1DD50C01D192009B1C150D01D15200CF
:1007B0005B1C2025EE1A01E02CE022E00546F54006
:1007C00015439840CA1AE10769181305C918002A89
:1007D000BBDA032040070818C10FC9070FE07146B4
:1007E0006118B2E7F10740080843711071444A00EC
:1007F0000CD001235B059A42A7D2C90FC90700207C
:10080000A3E74905490D26D1002001E00028F4D1D5
:1008100000219AE7284D6600002801D0012100E060
:10082000002171185F00002A01D0012600E0002697
:10083000BE19224FA94210D8AE420ED8B14208D0FC
:1008400001256D05E94206D01946A802414010462F
:100850007BE79C4201D0214677E70020394674E7C8
:1008600010B50C465C4005D50124E4076340FFF752
:100870000CFF10BDFFF778FE10BD30B40C465C4095
:1008800004D50124E407634030BC6DE630BCFCE6CF
:1008900070B50124E40761400D465D4002D4FFF7C6
:1008A00063FE70BD6340FFF7F0FE70BDFF07000000
:1008B0000000F0FF0000F07F0000E0FF0000F87F84
:1008C000F0B58B4C0F09254689B0BD437BD01D097F
:1008D0002646AE43FAD00E465E402740F60F3E4312
:1008E000254071D024012142FBD0FF24AD19A4047E
:1008F0002D1B039501252D05DB02DB0AC9022B43C5
:10090000C90A29431E010901040F130F05012143E0
:100910001701880B820391432D098C46A90B1E43B6
:100920008A039543B30B9A0396433F09BA0B94038A
:10093000A74302962E467E430497B6464E19D71912
:100940000C460196544305977E43371B7646BF1BE2
:100950003601B646BE0B361900967646BC043719EA
:10096000009C01D3641C00946400002F01D0012678
:100970003443029E049F754366467E430496760088
:1009800034196E0034190094029C019E1C196643B0
:10099000751BAE46069465464519059C05956C4346
:1009A000594375460891691A0191049E01465143C5
:1009B000A41B0491611A009C0791E10605D061090E
:1009C0000122114302E072E06EE06109089D0027F8
:1009D0002C0A2D066918049D7C412A0A2D066918E7
:1009E000019D6241AC0DAD026D185441079A910D05
:1009F000920255196141029A644658435443069B3A
:100A0000059A5A43121A131B9A0E9B015B187A41DE
:100A1000010B0005C3185141220A200644195A410E
:100A20009A4200D2491C01204002814203D315237F
:100A30000226F64302E014230326F6432020C51ABB
:100A4000A9401746AF40DA400A4320460399D840F0
:100A50000914731819055118039A3843D2075140E5
:100A6000AC4009D00122944006D30022401C5141E1
:100A7000002C01D1400840001E4A934212D30122AB
:100A800003989206904207DB0520400709181A4890
:100A90000143C012414004E0032040070818C10F81
:100AA000C907002009B0F0BD0020F107FAE70518DA
:100AB0000C464C4111486D42A04115D394181A467A
:100AC0005A410E48644290410ED301204A0040052D
:100AD000824209D35A00824206D35940C90F084ABC
:100AE000C90700201143DDE700200649DAE70000CE
:100AF0000000FF07FE070000FFFFFF7F0000E0FF90
:100B00000000F07F0000F87F0121C9050123411892
:100B100042001B06D3185B0E0AD0C1100722D20672
:100B2000891840075242D14201D5520089187047B6
:100B3000090208D50146002A03D0C10FC9070020C9
:100B4000704710467047420202D0002002497047A9
:100B5000072109050143F4E70000F87FF0B5FF2500
:100B60002D04C609C209FF2704462E400137CB09D0
:100B70003E4348402A402B400746002A6BD0002BBA
:100B800069D0AA4267D0AB4265D0002800DA32466D
:100B90000125ED0529432C4309022002090AD21A36
:100BA0004B0C7F24E31A434C000A7C44E35C7D2415
:100BB0002404121914145B00A218884201D3521C99
:100BC00000E0400049420C465C4324115C43DB01D9
:100BD0006415E318040A5C43C502200D0C46444327
:100BE0006419250A5D432303EC0C0D46654300039D
:100BF0000019EB184C42A34201D35B18401CD405EA
:100C00002018002B07D05B00C91804D3401C002912
:100C100001D1400840003F2189048A4209D3002ABB
:100C200008DC1106090F04D0032149074018C00F42
:100C3000C007F0BD01224100120689187F2252062A
:100C40009142F6D205214907C84201D59010F0BD66
:100C5000FF20C005F0BD002F00DA32461648AA4238
:100C600007D2AB4205D21902090E17D0F80FC00700
:100C7000F0BDFF2563002D06AB42F9D84900A9421B
:100C8000F6D8AB4201D1A942F2D0A94201D100214C
:100C900001E061004908D0050843F0BD1102090ECA
:100CA000FBD0FF200243D005F0BD0A4601461046A6
:100CB00054E700005A1700000000C07F0102C2156F
:100CC00004D00123DB071943002A0ADB9E239A1A6A
:100CD00002D40846D0407047FF22410012069142DC
:100CE00001D900207047C017C04370471F22030C72
:100CF00002D10F2200041CD0030E01D10002083AD9
:100D0000030F01D10001121F830F01D18000921E39
:100D1000002801DB4000521ED20551180212511862
:100D20001922904004D3491C002801D149084900E8
:100D300008467047C10FC90700D040420122920700
:100D40001143D3E701218907D0E700007047FFB5C1
:100D50000C461E468FB003CA089009914F007D0DC6
:100D600000D16D1E002108460020C0460321099ACB
:100D700089050840002A03DA8200801840080840EC
:100D8000800D01280A9002DD0020C0430A900898D7
:100D900007430DD0EF48F049281848430714189826
:100DA00000281DD07542291E1DDD0A9842421BE015
:100DB0001898012802D00020302104E00020F243DE
:100DC00005E02154401CB042FBDB30460022189B5A
:100DD000002121540F998B600A60486013B0F0BD68
:100DE000BD1B6D1CDFE70A9A002900DA69420BA8D7
:100DF00000F082FA0BAB07CB03AB07C30899099845
:100E000000F0DEFA6B4607C30146D4480918002DEE
:100E100000910ADDD14903980A9A4942401803A972
:100E20000390684600F0F1FC07E003990A9A08185D
:100E300003A90390684600F0BEFC6B4607C300049C
:100E4000000C03D00020C043410800E01046189A6F
:100E5000002A03D00022009215461EE0751E05D41C
:100E600000F0C8F9303262556D1EF9D501220843F1
:100E7000079602D000227F1C04E02078302801D1A0
:100E800000227F1E002A069789D01EE0112D07DA66
:100E900000F0B0F9303262556D1C02460A43F5D1BC
:100EA000084303D00098002819D00EE00021681EE6
:100EB00005E0235C625C63542254401E491C81425D
:100EC000F7DBA81B401E07950690079A189900208B
:100ED000A0540F98079B069A81600CC07EE71126EC
:100EE000002018905BE7D21DF0B50D460446D108EE
:100EF00093B0C90003C90C900D9101F087F8024628
:100F00000D98C00F01D02D2007E02068810701D582
:100F10002B2002E04007C00F4001032A0F9001D0B0
:100F2000072A05DB03462946204600F0A1F90EE119
:100F30002078800601D5E76900E006272846652D60
:100F400004D0662814D0672D69D12DE00020112F20
:100F5000009001DB112300E07B1C0CAA03A910A860
:100F6000FFF7F5FE1199002610987D1C0E9142E0C6
:100F700001203B460CAAC0070B900120009003A95A
:100F800010A8FFF7E4FE119D129810990026002882
:100F90000E9501D1781C0D18781B02D446427D1C99
:100FA000761EE81B00903AE0012F00DA01270020AE
:100FB000112F009001DD112300E03B460CAA03A98C
:100FC00010A8FFF7C4FE11993D46109800260E9117
:100FD000217809070BD40E99A94200DA0D4603A91E
:100FE000012D04DD4A19203AD27F302A06D0B842BA
:100FF00001DA011D04DA012100910FE06D1EEFE717
:10100000002802DC86192D1A03E0411CA94200DDEC
:101010000D46801B401C00900120C0070B902078DB
:10102000000705D40098A84202DB0020C0430090CE
:1010300069460020C8720B98012102AF0337C90727
:10104000884225D0022010902B2011900B98002868
:101050000BDA40420B902D20119006E00B9800F027
:1010600003FC30317F1E0B9039701099481E002907
:101070001090F3DC0B980028F0D111987F1E387087
:101080002088000501D5452000E065207F1E3870CE
:1010900001A8C01BC01D0B900F98002800D0012094
:1010A00041190098C01709180B980818A169081A67
:1010B000401EA0612078C00602D42046FFF790F8B9
:1010C0000F98002805D06268A1689047206A401CEC
:1010D00020622078C00625D52046FFF781F821E060
:1010E000002E07DB0E98B04204DD03A86268805D25
:1010F000A16802E06268A16830209047206A761CEF
:10110000401C20620098401E002800900AD1FFF782
:10111000E7F8C06862680168405CA1689047206A8F
:10112000401C206228466D1E0028D9DC07E062685A
:101130003878A1687F1C9047206A401C20620B9978
:10114000481E00290B90F2DC2046FFF75FF80320D1
:1011500044E6000001FCFFFF104D0000E1DFFFFF4F
:1011600001694A1C02610878704700B58FB002918E
:10117000002105910549019379440391114604909A
:101180006846FFF7BDF80FB000BD0000E5FFFFFFA8
:1011900010B5FF231B0644009C421DD84C009C4206
:1011A0001AD80346124A0B4307D4401A02D3EFF36E
:1011B000008010BDEFF3008010BD081A06D2EFF3D7
:1011C000008001219043C907084302E0EFF300804B
:1011D000904380F3008810BD0D231B041A4204D0F5
:1011E0001146002000F054FB10BDFFF77DF810BD44
:1011F000000000900B4670B502468907800808433E
:1012000019469D08141AA94125090807054308092C
:101210002C194841250A01060D43010A2C194141A8
:10122000200C0D0428430D0C00194D4100214019DC
:101230004D41C00869070843E908840F8D00254324
:10124000840024184D4124196D41121BAB4107E065
:101250000925ED432C11521963410024401C6141C2
:101260001C460A250026551BB441F1D270BD000072
:10127000F8B51F46044601230068DB020326014639
:101280001840072A05DB002801D017A506E017A59E
:1012900004E0002801D016A500E016A51020814327
:1012A0002160A069C01E002FA06101D0401EA06176
:1012B0002046FEF795FF002F09D038466268A168E6
:1012C0009047206A401C2062C01C206206E0206A11
:1012D000FAE762682878A1686D1C9047761EF8D2FC
:1012E0002046FEF793FFF8BD4E414E006E616E0042
:1012F000494E4600696E6600F7B516468AB02F481B
:1013000078446C4603467C33C06F5A689B680DC4B2
:101310002A487844763003AC0DC80DC43720C0018C
:10132000081837211B30FFF77CF805460C46803D36
:101330001B3C02D56442012000E0002000270990F8
:101340000FE0E0070BD00C201C497843794432466B
:101350004C394118684600F02EFA6B4607C36410FA
:101360007F1C002CEDD1154F7F442C3F15E0E80782
:1013700011D02001C0190EC8069108930792006889
:10138000F04201D198190890324606A903A800F04E
:1013900012FA03AB07C36D10641C002DE7D132466F
:1013A00069460998002803A802D000F02EFA01E04F
:1013B00000F001FA0A9B07C30DB0F0BD4410000015
:1013C000034640000A4610B5400D0BD00121C90765
:1013D0000F24A40200191C0364082143540D214367
:1013E000D20207E000210120F2E7D40F4900214397
:1013F0005200401E0029F8DADB0FDB07184310BD4E
:10140000FFB50D46144685B04868516800F0E6FD0A
:1014100000910190A868A16800F0E0FD029103909E
:10142000A868616800F0DAFD029A121882420292FE
:1014300001D2012000E00020019A0B18D2180028E8
:10144000019202D08A4202D903E08A4201D20120ED
:1014500000E000200099081800906868A16800F07A
:10146000BDFD029A12188242029201D2012000E0D0
:101470000020019A0B18D2180028019202D08A424B
:1014800002D903E08A4201D2012000E00020009945
:101490000818009028682168400049004008490861
:1014A0004018EE49471814E001994000C90F08435D
:1014B0000090019802994000C90F084301900298DA
:1014C00003994000C90F08430290039840007F1E13
:1014D000039000980028E7DA0898002801D0E04E31
:1014E00000E00026B74228DAF71BF806C00E15D038
:1014F000029B2021091A039A8B401A430392029AF5
:10150000019BC2408B401A430292019A009BC24049
:101510008B4000991A430192C14000917A110BD07F
:101520006B460320811A01D5002101E0890059583A
:101530008700401ED951F5D53746039802990028F7
:1015400000D00120014308980291002808460CD0E1
:10155000002800D001200199019A49050843012182
:10156000D20AC902D202019200E001210E9B01229F
:10157000D207012B02D0002B03D013E0002807D1A3
:1015800016E0904204D890420CD1019B0B4209D046
:10159000019B5918019105D10099491C009101D175
:1015A0007F1C0092002803D0102108460020C0466E
:1015B00028682168019B009A4840C10F0598C90717
:1015C00039430EC009B0F0BDFFB587B0099A08983D
:1015D0000899536892684068896896460022039388
:1015E00017469446089A12685300099A5B081268D5
:1015F000520052089A1A9B4BD4180A9A002A01D01A
:10160000352200E040220692002201231546049272
:10161000DB07059324E0002D05D175460346039EA4
:101620004D1BB34109D375466646039B491B049D78
:101630009841059B7519AC465F4163463B4308D012
:10164000059B049EDD0776082E435B0804960593F0
:1016500001E0521E641EC50FED0749184041521C9F
:10166000069B9A42D7DB002D04D17546039A6B1A6C
:10167000824101D203200CE0039A0B466B404240AA
:10168000134303D0014303D0012002E0022000E015
:101690000020614601910021009702910A990029DA
:1016A00005D06146400201436D4B019102E0800785
:1016B000002302909C423ADA1A1BD006C00E15D0C5
:1016C000029D2021019C091AC5408C402543029CA3
:1016D0008C4000D001242543019C02953D46C44026
:1016E0008D4039462C43C1400194009154111DD0C6
:1016F0006D460221002202290CD10320001B07E0C5
:10170000002804DB8600AE59002E00D00122401CC8
:101710000328F5DB081B02D588002A5004E080006E
:10172000285810438A00A850491EE3D51C460A9841
:10173000002802980CD0002800D001200199019ABD
:10174000490508430121D20AC902D202019200E0F0
:101750000121109B0122D207012B02D0002B03D0C4
:1017600013E0002807D116E0904204D890420CD133
:10177000019B0B4209D0019B5918019105D1009999
:10178000491C009101D1641C0092002803D0102153
:1017900008460020C04608980999019A006809681F
:1017A00048400099C30F0798DB072343036082601A
:1017B00041600BB0F0BD1FB5002300920A46014600
:1017C00001A8FFF71DFE01AB07CB04B010BD1FB58C
:1017D000012300920A46014601A8FFF711FE01AB62
:1017E0000F2407CBA402C30F4000DB074008001BF7
:1017F000002900DB0020490000054908CC0A2043ED
:1018000049051843D20A1143DFE71FB500230092B0
:101810000A46014601A8FFF7D7FE01AB07CBD4E784
:101820001FB5012300920A46014601A8FFF7CCFE2E
:1018300001AB0F2407CBA402C30F4000DB07400815
:10184000001B002900DB0020490000054908CC0AE4
:10185000204349051843D20A1143B6E702C0FFFFEF
:10186000013C0000FF3F000001468008081A020901
:101870001018020A1018020C1018C0088200121862
:101880005200891A01E0401C0A390A29FBD270472C
:10189000C80212D54803400F002804D0C803C04333
:1018A000012188407047EFF3008000010009032107
:1018B0000907084380F30088704700207047000044
:1018C000004870473C0000107546FFF7F9FFAE4630
:1018D000050069465346C008C000854618B020B5CB
:1018E000FEF75AFC60BC00274908B6460026C0C572
:1018F000C0C5C0C5C0C5C0C5C0C5C0C5C0C5403DC8
:1019000049008D46704710B50446C046C046204683
:10191000FEF731FC10BD0000024670B50A43920785
:101920002AD11E4DEE0104C808C9541B944334400B
:1019300017D0D0B2D9B2401A2106014310D190B2CB
:1019400099B2401A210401430AD110021902000A77
:10195000090A401A2102014302D1100E190E401A41
:1019600070BD9A42DFD010BA19BA884201D901205D
:1019700070BD0020C04370BD02780B78401C491C2C
:10198000002A09D09A4207D102780B78401C491CE2
:10199000002A01D09A42EFD0D01A70BD0101010196
:1019A00010B50C461107090F092904D00A290AD0DD
:1019B00008290CD104E011460820FFF769FF06E072
:1019C000510606D501E0510601D50120C007214688
:1019D00010BDD10607D501010909CC084907000E41
:1019E0000006044309E0410F20024907000A0143B1
:1019F000200E00061D22D14101430846E7E7000002
:101A000001491820ABBEFEE72600020006484069E7
:101A100006490860084600880004800D086001201F
:101A2000034908607047000000C001401C0000101E
:101A30002000001010B51648006801210904084371
:101A40001349086013488069BF21884311498861A0
:101A500008468069012108430E4988610E48806B61
:101A6000102188430C498863094800680121490313
:101A7000084307490860094909480068FEF7C7FCA0
:101A8000401E0002802108430649086010BD000086
:101A900080800440804004400082044040420F00A7
:101AA0002400001000C0014070B50025002400266D
:101AB00021E017480068012109060843144908601D
:101AC00000BF1348C06AC00FC0070028F9D01048F3
:101AD00000680121090608430D49086000BF0C4851
:101AE000C06AC00FC0070028F9D00948C56A280499
:101AF000850D6419761C0A2EDBD30A212046FEF7D9
:101B000086FC044603486043840A204670BD0000FA
:101B100000C00140E40C000000200E4908600846A7
:101B20000069012108430B490861084640684008E4
:101B3000400048600846C06840084000C8601C205B
:101B4000002805DBC206D20E01219140024A116035
:101B500000BF70470080035000E100E0F0B585B0A1
:101B600007460C46012C12D13846FEF7B0FB05465D
:101B70002F4A304BFEF7A4FE00222F4B019100901C
:101B8000FEF76EFE03910290FEF754FB87B20A2F18
:101B900012DA0A213846FEF744FC48002749085A61
:101BA0002749C8630846C06B01218902884324493C
:101BB000C86300F048FA28E064213846FEF731FC9B
:101BC0000D460A212846FEF72CFC40001B49085A06
:101BD0001B49C8630846C06B012149028843184964
:101BE000C86300F030FA0A213846FEF71AFC4800B4
:101BF0001249085A1249C8630846C06B012189027C
:101C000088430F49C86300F01EFA20460A3040009E
:101C10000A49085A0A49C8630846C06B0121C9022B
:101C200088430749C86300F00EFA05B0F0BD000014
:101C3000CDCCCCCCCCCCFC3F00004040020000100E
:101C4000C03F02500148024908607047FF0F000082
:101C500000800250FEB5054600BF002002906722BA
:101C60005201511B5C4A6A431046FEF7D0FB0746FF
:101C7000FFF768F806465949304600F07FFA17D258
:101C80005749304600F0A4FA12D2564C2046FFF7CE
:101C900059F831460190514800F0C6FA0090019978
:101CA000FEF75CFF0746002100F022FA029091E067
:101CB0004B49304600F062FA17D24B49304600F0EB
:101CC00087FA12D2494C2046FFF73CF83146019082
:101CD000434800F0A9FA00900199FEF73FFF07463C
:101CE000434900F005FA029074E03F49304600F0A5
:101CF00045FA18D23F49304600F06AFA13D2FF2461
:101D0000C7342046FFF71EF831460190364800F0F0
:101D10008BFA00900199FEF721FF0746364900F043
:101D2000E7F9029056E03349304600F027FA18D21E
:101D30003249304600F04CFA13D2FF2413342046C7
:101D4000FFF700F8314601902A4800F06DFA009044
:101D50000199FEF703FF0746294900F0C9F90290EF
:101D600038E02649304600F009FA17D225493046B6
:101D700000F02EFA12D2AB242046FEF7E3FF3146E4
:101D800001901E4800F050FA00900199FEF7E6FE1F
:101D900007461D4900F0ACF902901BE01949304696
:101DA00000F0ECF916D21949304600F011FA11D2C0
:101DB0006E242046FEF7C6FF31460190114800F020
:101DC00033FA00900199FEF7C9FE0746104900F06A
:101DD0008FF902900298FEBD1027000000B2044760
:101DE00000AC9E465605000000684446060300000D
:101DF000000020410010FB450000A0410090A545D7
:101E00000000F041002060450000204200401B45DA
:101E100000004842002005E0002100E0491C642940
:101E2000FCD3401C0B4A9042F6D30B4A9269D2076E
:101E3000D20F002A0DD0094A1278002A03D10122BC
:101E4000064B1A7002E00022044B1A700122024B6A
:101E5000DA617047C40900000080035000000010E0
:101E600008B52548806B20218843234988630020DA
:101E700022490862009003E000BF0098401C0090D7
:101E80000098C828F8D301201C49403108604860F8
:101E9000002048600120486000BF1848403040687A
:101EA000C007C00F0028F8D02320144988601248CA
:101EB000806B802188431049886300BF0F48C06849
:101EC000C007C00F0028F9D003200C494031086337
:101ED00001204863002048630120486300BF074891
:101EE0004030406BC007C00F0028F8D001200349E4
:101EF0004031886308BD0000008204400080044037
:101F000070B525480068012109040843224908608A
:101F10002248406AC008C000204948620846406A1A
:101F2000012108431D4948620846806AC008C00074
:101F300088620846806A0121084318498862164869
:101F400000680121090308431349086001208861E2
:101F500083201349C8601048816912480068FEF761
:101F600056FA05094B21C9012846FEF750FA84B2FA
:101F70002046E117090E09180912094A5160E117B4
:101F8000090E091809120902611A1160032011468D
:101F9000C8600720886070BD808004408040044095
:101FA00000800040240000100449086000BF03497D
:101FB0004969402211400029F9D070470080004053
:101FC00000B5034607E01878002800D104E018782F
:101FD0005B1CFFF7E9FFF6E700BF00BDF8B5040C96
:101FE0008BB2264682B25E43104658430D0C370C26
:101FF000360400218019164679416E43370C3604A9
:102000008019264679416E438919F8BD4900CA02F4
:102010000243100000D004204A0D01D001221043D9
:10202000044A490D914201D102210843012800D1FF
:1020300005207047FF07000030380A2801D2012030
:10204000704700207047002000E0401C6428FCD34B
:1020500070470000FFF754FFFFF7F4FDFFF7EAFCBD
:10206000FFF75AFD20E0FFF71FFD0546FFF7F2FDE1
:102070000446002709E02046FEF720FE85B20B4803
:1020800001782846FFF76AFD7F1C642FF3D32046B2
:10209000FEF73AFD05462A460B4605A10848FEF71D
:1020A0008BF80748FFF78CFFDDE700000000001009
:1020B000CEC2B6C825342E3266A1E6200D0A000035
:1020C0002800001010B500290AD00878002807D091
:1020D00005487844FFF720FC002801D0002010BDFF
:1020E0000248784410BD00002A03000022030000CB
:1020F00070B501250400ED074C4020D4441A01D2EC
:10210000001B0919C60D4B00F2B2FF2A29D01B0E85
:102110002CD000020C02D31A2C43DC4028430519B2
:1021200010D2280A02D3401C6D0611D0761EF60587
:102130008019FF2A00DA70BDC00DC00570BD69406E
:1021400000F078F801200543C541521C761CE8E7F1
:1021500064089C40C90161408900E7D10124A04383
:10216000E4E71B0E440200D0034870BD002AFCD1F6
:10217000C00FC00770BD00BF0000C07F0123020078
:10218000DB050A430DD4DA4203D49A4207D48842CD
:102190007047D84214D4D94212D488427047804242
:1021A0007047DA4203D59A42F9D5814270475B0005
:1021B0004200DA4204D24A00DA4201D28142704738
:1021C00010B5024AFEF7E4FF10BD00BF0900160477
:1021D00001230A00DB0502430DD4DA4203D49A42FC
:1021E00007D481427047D94214D4D84212D48142D4
:1021F000704789427047DA4203D59A42F9D588423E
:1022000070475B004A00DA4204D24200DA4201D24F
:10221000884270474840414010B5024A4840FEF7A6
:10222000B7FF10BD0900160470B501250400ED07C5
:102230004C4022D4441A02D26C40001B0919C60D2E
:102240004B00F2B2FF2A4BD01B0E50D000020C0202
:10225000D31A2C43DC40A843051B05D5AD0019D388
:102260006D08761E521E37D0F605280A01D2801955
:1022700070BD70416D0603D070BD6940FFF73EFF31
:102280009C4009026140490001D0401E70BD0124FC
:10229000A04370BD6D081DD001202B0C01D12D0471
:1022A00010302B0E01D12D0208302B0F01D12D0142
:1022B000001DAB0F01D1AD00801CEB0F01D16D00F3
:1022C000401C6D00361A121A680AF5054019012AD9
:1022D00002DB70BD002070BDC036300AC00770BD83
:1022E0001B0E440201D1FF2B00D1024870BD002A11
:1022F000F0D070BD0000C07F03B40248784484462B
:1023000003BC6047E7EBFFFF818283848586878873
:10231000898B8C8D8E8F919293959697999A9C9D8F
:102320009FA0A2A3A5A7A8AAACAEB0B2B3B5B7B9F7
:10233000BCBEC0C2C5C7C9CCCED1D4D7D9DCDFE2C0
:10234000E6E9ECF0F3F7FAFE02400000000000A01E
:102350000000000005400000000000C80000000070
:102360000C4000000000409C0000000019400000EC
:102370000020BCBE0000000034400000BFC91B8E1E
:1023800000000004B5400000504BCFD06607E2CFFC
:10239000010000006C4100003E8251AADFEEA7342C
:1023A00001000000D9420000DCB5A0E23A301F97DE
:1023B000FFFFFFFFB4450000FD25A0C8E9A3C14F02
:1023C000FFFFFFFFFF3F0000000000800000000053
:1023D000FF3F000000000080000000001824000003
:1023E000000000102800000004010000402400004C
:1023F0002800001078020000200100001C000000EE
:1024000043000000F8FFFFFF0C0000000E0000007A
:102410000F0000002E0000000000C00FF90FA40FF5
:10242000B00F990F920F820FF80F800F900FC60F09
:102430008E0F00000000000000000000006CDC02B5
:04000005000000C136
:00000001FF
